:030000000208AE45
:0C08AE00787FE4F6D8FD7581200208F583
:10093A00020B024B029302BA0310037003DC041782
:10094A00049705270575062006E007B8FC8FFCEF1B
:10095A00FD45FD6CFDB5FDF5FE2EFE48FE78FEA3B5
:10096A00FEB7FEDBFEFBFF170102030101020301D2
:10097A000304050304050506050403010506050429
:10098A00030101050101050104040404040404042B
:10099A000404080404080301030104040301030115
:0809AA0004040404080404081D
:0A0A4200C180C1010108FF01090095
:1009B200D2AF75890185088C85098AD2A9D28C1299
:1009C2000800900000AF82AE83E4FCFD7B407A9C7D
:0B09D200F9F8D31209EF40E7A380EA18
:10080000E4FBFAFDFCFFFEF9E9C394204003020873
:10081000AD3001FDC201EB4A7070E990097293148A
:10082000F50A25E02456F582E43409F583E493F5CE
:1008300008E50A25E02456F582E43409F5837401BD
:1008400093F509E990099293FF7E00E50A25E024DB
:100850003AF582E43409F583E493FC740193FD12C4
:1008600009DDEF7802CEC313CE13D8F9FDAC0678BC
:1008700002CEC313CE13D8F9FFC3ED9FFFEC9EFE4B
:10088000D2000BBB00010A020808C3EB9DEA9C40A2
:1008900007E4FAFB090208080BBB00010AEB6F70C2
:0D08A00002EA6E6003020808C200020808A8
:0108AD002228
:03000B00020A31B5
:100A310085088C85098AD201300003B29632D2969C
:010A41003282
:100A1C00EF1FAC0670011E4C600A7D027CC7DCFE29
:040A2C00DDFC80EC81
:010A300022A3
:100A05005389F0438901758AB0758C3CC28DD28CAF
:070A1500D2A9D2AFC2B92241
:1008BA000209B2E493A3F8E493A34003F68001F299
:1008CA0008DFF48029E493A3F85407240CC8C3333F
:1008DA00C4540F4420C8834004F456800146F6DF0E
:1008EA00E4800B0102040810204080900A42E47E52
:1008FA00019360BCA3FF543F30E509541FFEE49303
:10090A00A360010ECF54C025E060A840B8E493A3C9
:10091A00FAE493A3F8E493A3C8C582C8CAC583CAF4
:10092A00F0A3C8C582C8CAC583CADFE9DEE780BEAC
:010A4C0000A9
:1009DD00EF8DF0A4A8F0CF8CF0A428CE8DF0A42E2E
:0209ED00FE22E8
:1009EF00EB9FF5F0EA9E42F0E99D42F0EC6480C87F
:0609FF0064809845F0221F
:00000001FF
