:030000000208F102
:0C08F100787FE4F6D8FD75815E020938BE
:100800000004000400041602180219061802190454
:100810001D04180C11021102160614021604190404
:10082000140C11041206110212041904110800021A
:1008300019021902190218061302130418041808E1
:100840000004160218021906180219041D04180CD7
:10085000110211021606140216041904140C0F02D8
:10086000110212041902180419061B021B021D02B0
:10087000190A190218021602160218041504160C99
:1008800019021B021D061B021D0420041B0C14026E
:1008900014021906180219041D041D10160218026C
:1008A000190418041B021B021906140A1E041D0455
:1008B0001D0419041D0C1D042208200420041D021F
:1008C0001B021908000219021B0419021B021B0457
:1008D00020041D0C1D04220820081D021B021908FB
:1008E000000219021B0419021B061804160C00044E
:0108F000FF08
:100A4B00204A0A0000F88CF8F3F95BF9B8FA15FAAA
:100A5B0067FAB9FB04FB4BFB90FBCFFC10FC44FC8F
:100A6B0079FCACFCDCFD09FD34FD5CFD82FDA6FDD3
:100A7B00C8FDE8FE06FE22FE3DFE56FE6EFE85FE1E
:0D0A8B009AFEAEFEC1FED3FEE4FEF4FF03B2
:100AD900120B41E50890080093FFF460208F090587
:100AE90008E5089375F07DA4FFAEF0120B2C0508FC
:100AF900C28C7F057E00120B2CD28C80D6C28C80D2
:010B0900FEED
:03000B00020AA541
:100AA500C0E0C0D075D000C000C006E50925E0242F
:100AB5000AF8E6FE08E64E6012E50925E0240AF884
:100AC500E6FE08E6F58AEEF58CB2A5D006D000D094
:040AD500D0D0E0326B
:050B5500007FE3DFFE5C
:010B5A002278
:040B0A00AD07AC0681
:100B0E00E4FBFAED25E0FFEC33FEC3EB9FEA9E50CB
:0D0B1E000CB2A5120B550BBB00010A80E6BE
:010B2B0022A7
:1009EA00E4F55E20B1137F14FE120B2C30B1FD7FAB
:1009FA00147E00120B2C755E0120B0147F147E0049
:100A0A00120B2C30B0FD7F147E00120B2C755E0287
:100A1A0020B2147F147E00120B2C30B2FD7F147E9C
:100A2A0000120B2C755E0320B3147F147E00120B88
:100A3A002C30B3FD7F147E00120B2C755E04AF5E62
:010A4A002289
:0C0A98000A543F065B4F666D7D077F6FC0
:10097D00EF14B40800505490099275F003A4C58388
:10098D0025F0C583730209AA0209AE0209B2020954
:10099D00B60209BA0209C20209CA0209D2D2A4805A
:1009AD000ED2A48012D2A48016D2A4801AC2A4D2D0
:1009BD00A3D2A28016C2A4D2A3C2A2800EC2A4C288
:1009CD00A3D2A28006C2A4C2A3C2A274542DF8E67B
:0D09DD00F5807F017E00120B2CE4F58022D6
:100B2C00EF1FAC0670011E4C600A7D0B7CBEDCFE18
:040B3C00DDFC80EC70
:010B40002292
:100B41005389F0758ACD758CD4C28DD28CD2A9D23D
:040B5100AFC2B92254
:1008FD00020AD9E493A3F8E493A34003F68001F22E
:10090D0008DFF48029E493A3F85407240CC8C333FB
:10091D00C4540F4420C8834004F456800146F6DFCA
:10092D00E4800B0102040810204080900A4BE47E05
:10093D00019360BCA3FF543F30E509541FFEE493BF
:10094D00A360010ECF54C025E060A840B8E493A386
:10095D00FAE493A3F8E493A3C8C582C8CAC583CAB1
:10096D00F0A3C8C582C8CAC583CADFE9DEE780BE69
:010AA4000051
:00000001FF
