:03000000020800F3
:0C080000787FE4F6D8FD758152020847AD
:10088C00204A090000F88CF8F3F95BF9B8FA15FA6C
:10089C0067FAB9FB04FB4BFB90FBCFFC10FC44FC50
:1008AC0079FCACFCDCFD09FD34FD5CFD82FDA6FD94
:1008BC00C8FDE8FE06FE22FE3DFE56FE6EFE85FEDF
:0D08CC009AFEAEFEC1FED3FEE4FEF4FF0373
:0E092C0012090005087FF47E0112091780F5FC
:03000B000208DA0E
:1008DA00C0E0C0D075D000C000C006E50825E024FD
:1008EA0009F8E6FE08E6F58AEEF58CB2A5D006D040
:0608FA0000D0D0D0E03276
:10091700EF1FAC0670011E4C600A7D027CC7DCFE2F
:04092700DDFC80EC87
:01092B0022A9
:100900005389F0438901758AB0758C3CC28DD28CB5
:07091000D2A9D2AFC2B92247
:10080C0002092CE493A3F8E493A34003F68001F2CD
:10081C0008DFF48029E493A3F85407240CC8C333ED
:10082C00C4540F4420C8834004F456800146F6DFBC
:10083C00E4800B010204081020408090088CE47EB8
:10084C00019360BCA3FF543F30E509541FFEE493B1
:10085C00A360010ECF54C025E060A840B8E493A378
:10086C00FAE493A3F8E493A3C8C582C8CAC583CAA3
:10087C00F0A3C8C582C8CAC583CADFE9DEE780BE5B
:0108D900001E
:00000001FF
