:03000000020800F3
:0C080000787FE4F6D8FD758113020847EC
:10095A00E4FDFC7F0112088C1208F98F12E512607F
:10096A00F77F6E7E00120980E512FD3395E0FC7F69
:06097A000112088C80E26E
:0509C400007FE3DFFEEF
:0109C900220B
:04098000AD07AC060D
:10098400E4FBFAED25E0FFEC33FEC3EB9FEA9E5057
:0D0994000CB2A51209C40BBB00010A80E6DD
:0109A1002233
:1008F900E4F51320B1137F14FE1209A230B1FD7F74
:10090900147E001209A275130120B0147F147E0011
:100919001209A230B0FD7F147E001209A2751302DC
:1009290020B2147F147E001209A230B2FD7F147E1A
:10093900001209A275130320B3147F147E00120953
:10094900A230B3FD7F147E001209A2751304AF1300
:01095900227B
:0C09B7000A083F065B4F666D7D077F6FEE
:10088C00EF14B4080050549008A175F003A4C5836C
:10089C0025F0C583730208B90208BD0208C102081D
:1008AC00C50208C90208D10208D90208E1D2A48005
:1008BC000ED2A48012D2A48016D2A4801AC2A4D2C2
:1008CC00A3D2A28016C2A4D2A3C2A2800EC2A4C27A
:1008DC00A3D2A28006C2A4C2A3C2A274082DF8E6B9
:0D08EC00F5807F017E001209A2E4F5802254
:1009A200EF1FAC0670011E4C600A7D0B7CBEDCFEA4
:0409B200DDFC80ECFC
:0109B600221E
:10080C0002095AE493A3F8E493A34003F68001F29F
:10081C0008DFF48029E493A3F85407240CC8C333ED
:10082C00C4540F4420C8834004F456800146F6DFBC
:10083C00E4800B01020408102040809009B7E47E8C
:10084C00019360BCA3FF543F30E509541FFEE493B1
:10085C00A360010ECF54C025E060A840B8E493A378
:10086C00FAE493A3F8E493A3C8C582C8CAC583CAA3
:10087C00F0A3C8C582C8CAC583CADFE9DEE780BE5B
:0109C3000033
:00000001FF
