:03000000020800F3
:0C080000787FE4F6D8FD758153020847AC
:10088C0000020A010A01110211020A040004000408
:10089C0000020A010A030002000400020A010A0114
:1008AC00110211020A040004000400020A030002EF
:1008BC0000020A010A010A020A010A0111021102CC
:1008CC000A040004000400020A010A0300020004E6
:1008DC0000020A010A01110211020A0400040004B8
:0708EC0000020A010A01FFEE
:1008F300204A0A0000F88CF8F3F95BF9B8FA15FA04
:1009030067FAB9FB04FB4BFB90FBCFFC0CFC44FCEC
:1009130079FCACFCDCFD09FD34FD5CFD82FDA6FD2C
:10092300C8FDE8FE06FE22FE3DFE56FE6EFE85FE77
:0D0933009AFEA7FEC1FED3FEE4FEF4FF0312
:100941001209B2E50890088C93FFF460208F090525
:1009510008E5089375F07DA4FFAEF01209C90508FA
:10096100C28C7F057E001209C9D28C80D6C28C7FD1
:0D097100327E001209C9D28CE4F50880C660
:03000B0002097E69
:10097E00C0E0C0D075D000C000C006E50925E02457
:10098E000AF8E6FE08E64E6012E50925E0240AF8AC
:10099E00E6FE08E6F58AEEF58CB2A5D006D000D0BC
:0409AE00D0D0E03293
:1009C900EF1FAC0670011E4C600A7D027CC7DCFE7D
:0409D900DDFC80ECD5
:0109DD0022F7
:1009B2005389F0438901758AB0758C3CC28DD28C03
:0709C200D2A9D2AFC2B92295
:10080C00020941E493A3F8E493A34003F68001F2B8
:10081C0008DFF48029E493A3F85407240CC8C333ED
:10082C00C4540F4420C8834004F456800146F6DFBC
:10083C00E4800B01020408102040809008F3E47E51
:10084C00019360BCA3FF543F30E509541FFEE493B1
:10085C00A360010ECF54C025E060A840B8E493A378
:10086C00FAE493A3F8E493A3C8C582C8CAC583CAA3
:10087C00F0A3C8C582C8CAC583CADFE9DEE780BE5B
:0109400000B6
:00000001FF
